:100000000C942A000C9447000C9447000C9449006F
:100010000C9447000C94D7010C9447000C944700B3
:100020000C9447000C94B0010C94FE010C948901CF
:100030000C94A4000C9408020C9447000C942F021A
:100040000C9447000C9447000C9447000C94470014
:100050000C94470011241FBECFE5D8E0DEBFCDBF12
:1000600010E0A0E6B0E0E6E3FAE002C005900D92F1
:10007000A438B107D9F720E0A4E8B0E001C01D9290
:10008000AE3AB207E1F70E949F000C9419050C9458
:1000900000001F920F920FB60F9211242F933F93DF
:1000A0004F935F936F937F938F939F93AF93BF9380
:1000B000EF93FF9304B606FE12C060E070E082E0AA
:1000C0000E9429018BB78F7D8BBF84B78F7B84BF44
:1000D0008AB780628ABF8BB780628BBF1FC004B6AD
:1000E00006FC1CC082E00E94490164E870E082E0E6
:1000F0000E94670181E08093860060E070E082E00A
:100100000E9459018BB78F7D8BBF84B7806484BFF9
:100110008AB780628ABF8BB780628BBFFF91EF91F5
:10012000BF91AF919F918F917F916F915F914F910F
:100130003F912F910F900FBE0F901F9018950E9426
:10014000C70380E090E008951F920F920FB60F92C0
:1001500011242F933F934F935F936F937F938F93CC
:100160009F93AF93BF93EF93FF93E0918700F0913C
:1001700088000995FF91EF91BF91AF919F918F9169
:100180007F916F915F914F913F912F910F900FBE93
:100190000F901F90189541155105F1F0813061F0D5
:1001A00018F0823089F01AC06130D1F450938E007B
:1001B00040938D0080E008956130A1F450938C004D
:1001C00040938B0080E00895613071F450938A0071
:1001D0004093890080E0089581E0089580E00895CB
:1001E00080E0089580E0089580E00895FC01892B67
:1001F00071F1808191818130910561F018F0029751
:10020000C1F01EC093B78281892B83BF8681809302
:10021000920016C02EB53FB582819381822B932B1D
:100220009FBD8EBD868197819093910080939000B1
:1002300007C095B58281892B85BD868180938F000B
:10024000789499B78085892B89BF80E0089581E0F3
:100250000895813059F018F0823099F018C062BFCB
:100260009091920083B7892B83BF11C077277DBD02
:100270006CBD80919000909191009EB5892B8EBDB0
:1002800006C064BD90918F0085B5892B85BD80E047
:100290000895813039F018F0823039F008C083B702
:1002A00013BE05C08EB51EBC02C085B515BC80E06E
:1002B0000895813031F018F0823031F006C062BF0D
:1002C00004C07DBD6CBD01C064BD80E008956115B2
:1002D0007105D9F0813059F018F0823079F017C0EB
:1002E00082B790E0FB019183808380E008958CB514
:1002F0009DB5FB019183808380E0089584B590E0F3
:10030000FB019183808380E0089581E0089580E07F
:1003100008951F920F920FB60F9211242F933F93BF
:100320004F935F936F937F938F939F93AF93BF93FD
:10033000EF93FF93E0918D00F0918E000995FF916E
:10034000EF91BF91AF919F918F917F916F915F914D
:100350004F913F912F910F900FBE0F901F901895C6
:100360001F920F920FB60F9211242F933F934F932A
:100370005F936F937F938F939F93AF93BF93EF930D
:10038000FF93E0918B00F0918C000995FF91EF9124
:10039000BF91AF919F918F917F916F915F914F919D
:1003A0003F912F910F900FBE0F901F9018951F92A5
:1003B0000F920FB60F9211242F933F934F935F9399
:1003C0006F937F938F939F93AF93BF93EF93FF931D
:1003D000E0918900F0918A000995FF91EF91BF911A
:1003E000AF919F918F917F916F915F914F913F91CD
:1003F0002F910F900FBE0F901F9018951F920F9284
:100400000FB60F9211240F900FBE0F901F901895EA
:100410001F920F920FB60F9211242F933F934F9379
:100420005F936F937F938F939F93AF93BF93EF935C
:10043000FF93E0919300F09194000995FF91EF9163
:10044000BF91AF919F918F917F916F915F914F91EC
:100450003F912F910F900FBE0F901F9018951F92F4
:100460000F920FB60F9211242F933F934F935F93E8
:100470006F937F938F939F93AF93BF93EF93FF936C
:10048000E0919500F09196000995FF91EF91BF9151
:10049000AF919F918F917F916F915F914F913F911C
:1004A0002F910F900FBE0F901F90189581E08093B1
:1004B0009700809198009091990060E071E0681B2E
:1004C000790B82E00E945901089581E080939700A2
:1004D00060919800709199007195619571090E94E1
:1004E0005901089581E08093970080919800909140
:1004F000990060E071E0681B790B80E00E9459016F
:100500000895CF93DF93009709F495C0EC0188819B
:100510008130A1F120F0823009F45EC08EC084E702
:1005200090E00E94F60080917A0090917B00059700
:10053000E9F469817A8180E090E00E941E0420E065
:1005400030E04AE751E40E9484040E94EF03709374
:10055000990060939800809198009091990060E0D4
:1005600071E0681B790B80E00E94590142E752E07C
:1005700061E080E00E94CB0080E060C08AE690E00D
:100580000E94F60080917000909171000597E1F44F
:1005900069817A8180E090E00E941E0420E030E0D2
:1005A0004AE751E40E9484040E94EF03709399008B
:1005B0006093980060919800709199007195619591
:1005C000710981E00E94590145E652E061E081E055
:1005D0000E94CB0080E032C080E690E00E94F600EE
:1005E00080916600909167000797E9F469817A81AC
:1005F00080E090E00E941E0420E030E04AE751E4F1
:100600000E9484040E94EF03709399006093980005
:10061000809198009091990060E071E0681B790BDF
:1006200082E00E94590146E552E061E082E00E94CA
:10063000CB0080E003C081E001C080E0DF91CF917A
:100640000895CF92DF92EF92FF920F931F93CF9373
:10065000DF9380917E0090917F0099230CF448C035
:1006600080919700813009F043C010929700CAE949
:10067000D0E000E010E0CC24CA94DC2CE881F981C1
:1006800085819681019696838583228133818217A5
:10069000930721F5168215820190F081E02D0995CE
:1006A000E881F98184818130C9F480917E00909144
:1006B0007F00009729F4D0927F00C0927E000EC088
:1006C000FC01EE0FFF1FE656FF4F20813181398379
:1006D0002883019790937F0080937E000F5F1F4FC8
:1006E000229680917E0090917F008017910734F6CA
:1006F00084E0DF91CF911F910F91FF90EF90DF90F9
:10070000CF9008956115710519F120917E00309107
:100710007F002A303105F4F4E0E0F0E0718360837B
:100720009383828344831682158215BA80917E005A
:1007300090917F00019690937F0080937E00880FB8
:10074000991FFC01E656FF4F1182108280E0089548
:1007500085E0089583E008958FEF87BB98B380E12B
:10076000892788BB08958FEF87BB98B380E28927DC
:1007700088BB08958FEF87BB98B380E4892788BB37
:1007800008958FEF87BB88B3805888BB089580E8B1
:1007900090E00E94810240E06CEA73E08AE090E021
:1007A0000E94820340E063EB73E084E190E00E94EA
:1007B000820340E06AEB73E08EE190E00E948203E6
:1007C00040E061EC73E088E290E00E94820360E028
:1007D00070E080E00E9429010E942103FDCF0E9469
:1007E000630488F09F5798F0B92F9927B751B0F05C
:1007F000E1F0660F771F881F991F1AF0BA95C9F7A5
:1008000014C0B13091F00E947D04B1E008950C94C1
:100810007D04672F782F8827B85F39F0B93FCCF374
:10082000869577956795B395D9F73EF49095809521
:10083000709561957F4F8F4F9F4F0895E89409C041
:1008400097FB3EF490958095709561957F4F8F4F03
:100850009F4F9923A9F0F92F96E9BB279395F69519
:10086000879577956795B795F111F8CFFAF4BB0F97
:1008700011F460FF1BC06F5F7F4F8F4F9F4F16C0FB
:10088000882311F096E911C0772321F09EE8872F85
:10089000762F05C0662371F096E8862F70E060E041
:1008A0002AF09A95660F771F881FDAF7880F9695BA
:1008B000879597F9089557FD9058440F551F59F0A3
:1008C0005F3F71F04795880F97FB991F61F09F3F3D
:1008D00079F087950895121613061406551FF2CF66
:1008E0004695F1DF08C0161617061806991FF1CFB6
:1008F00086957105610508940895E894BB276627DD
:100900007727CB0197F908950E9497040C94080566
:100910000E94FA0438F00E94010520F0952311F09E
:100920000C94F1040C94F70411240C947E040E949E
:100930005B0470F3959FC1F3950F50E0551F629FC4
:10094000F001729FBB27F00DB11D639FAA27F00D28
:10095000B11DAA1F649F6627B00DA11D661F829F4F
:100960002227B00DA11D621F739FB00DA11D621F34
:10097000839FA00D611D221F749F3327A00D611D51
:10098000231F849F600D211D822F762F6A2F112433
:100990009F5750409AF0F1F088234AF0EE0FFF1F66
:1009A000BB1F661F771F881F91505040A9F79E3FBD
:1009B000510580F00C94F1040C947E045F3FE4F345
:1009C000983ED4F3869577956795B795F795E79513
:1009D0009F5FC1F7FE2B880F911D9695879597F91C
:1009E000089597F99F6780E870E060E008959FEFB1
:1009F00080EC089500240A941616170618060906B6
:100A0000089500240A941216130614060506089584
:100A1000092E0394000C11F4882352F0BB0F40F40C
:100A2000BF2B11F460FF04C06F5F7F4F8F4F9F4F4C
:060A30000895F894FFCFC9
:100A36000200000020000700400001000000002026
:100A46000500040000000000200005000100FFFF73
:040A5600000100009B
:00000001FF
