:100000000C942A000C9447000C9447000C9449006F
:100010000C9447000C9477010C9447000C94470013
:100020000C9447000C9446010C94AC010C94110103
:100030000C94A2000C94B6010C9447000C94470059
:100040000C9447000C9447000C9447000C94470014
:100050000C94470011241FBECFE5D8E0DEBFCDBF12
:1000600010E0A0E6B0E0EEE8F3E002C005900D92EB
:10007000A036B107D9F720E0A0E6B0E001C01D929C
:10008000A037B207E1F70E949F000C94C5010C94C1
:1000900000001F920F920FB60F9211242F933F93DF
:1000A0004F935F936F937F938F939F93AF93BF9380
:1000B000EF93FF9304B606FE12C060E070E082E0AA
:1000C0000E94B1008BB78F7D8BBF84B78F7B84BFBD
:1000D0008AB780628ABF8BB780628BBF1FC004B6AD
:1000E00006FC1CC082E00E94D10060E670E082E065
:1000F0000E94EF0081E08093620060E070E082E0A7
:100100000E94E1008BB78F7D8BBF84B7806484BF72
:100110008AB780628ABF8BB780628BBFFF91EF91F5
:10012000BF91AF919F918F917F916F915F914F910F
:100130003F912F910F900FBE0F901F90189580E068
:1001400090E008951F920F920FB60F9211248F9393
:1001500081E0809363008F910F900FBE0F901F90EE
:100160001895813059F018F0823099F018C062BFAC
:1001700090916C0083B7892B83BF11C077277DBD19
:100180006CBD80916A0090916B009EB5892B8EBDED
:1001900006C064BD9091690085B5892B85BD80E05E
:1001A0000895813039F018F0823039F008C083B7F3
:1001B00013BE05C08EB51EBC02C085B515BC80E05F
:1001C0000895813031F018F0823031F006C062BFFE
:1001D00004C07DBD6CBD01C064BD80E008956115A3
:1001E0007105D9F0813059F018F0823079F017C0DC
:1001F00082B790E0FB019183808380E008958CB505
:100200009DB5FB019183808380E0089584B590E0E3
:10021000FB019183808380E0089581E0089580E070
:1002200008951F920F920FB60F9211242F933F93B0
:100230008F939F93AF93BF938091650090916600D9
:10024000A0916700B09168000196A11DB11D809337
:10025000650090936600A0936700B093680081E00A
:100260008093640020916E0030916F0080E091E0F7
:10027000821B930B82BFBF91AF919F918F913F9152
:100280002F910F900FBE0F901F9018951F920F92F5
:100290000FB60F9211248F939F93AF93BF938091CA
:1002A000650090916600A0916700B091680001968A
:1002B000A11DB11D8093650090936600A093670017
:1002C000B093680081E08093640080916E0090910B
:1002D0006F009195819591099DBD8CBDBF91AF91A6
:1002E0009F918F910F900FBE0F901F9018951F92A6
:1002F0000F920FB60F9211242F933F938F939F93DA
:10030000AF93BF938091650090916600A0916700C4
:10031000B09168000196A11DB11D80936500909376
:100320006600A0936700B093680081E0809364004A
:1003300020916E0030916F0080E091E0821B930B62
:1003400084BDBF91AF919F918F913F912F910F905D
:100350000FBE0F901F9018951F920F920FB60F921D
:1003600011240F900FBE0F901F9018951F920F929F
:100370000FB60F9211248F9381E080936D008F91BF
:0E0380000F900FBE0F901F901895F894FFCFAE
:00000001FF
