S01900004F62737461636C65446574656374696F6E2E737265633F
S11300000C942A000C9447000C9447000C9449006B
S11300100C9447000C9480010C9447000C94470006
S11300200C9447000C944F010C94B5010C941A01E4
S11300300C94A4000C94F9010C9447000C94470010
S11300400C9447000C9447000C9447000C94470010
S11300500C94470011241FBECFE5D8E0DEBFCDBF0E
S113006010E0A0E6B0E0E4E4F4E002C005900D92F4
S1130070A836B107D9F720E0A8E6B0E001C01D9288
S1130080A837B207E1F70E949F000C9420020C9459
S113009000001F920F920FB60F9211242F933F93DB
S11300A04F935F936F937F938F939F93AF93BF937C
S11300B0EF93FF9304B606FE12C060E070E082E0A6
S11300C00E94BA008BB78F7D8BBF84B78F7B84BFB0
S11300D08AB780628ABF8BB780628BBF1FC004B6A9
S11300E006FC1CC082E00E94DA0068E670E082E050
S11300F00E94F80081E080936A0060E070E082E092
S11301000E94EA008BB78F7D8BBF84B7806484BF65
S11301108AB780628ABF8BB780628BBFFF91EF91F1
S1130120BF91AF919F918F917F916F915F914F910B
S11301303F912F910F900FBE0F901F9018950E9422
S1130140080280E090E008951F920F920FB60F927C
S113015011248F938FB184BD80916B008F5F809346
S11301606B0080916B008FB98F910F900FBE0F9031
S11301701F901895813059F018F0823099F018C00A
S113018062BF9091740083B7892B83BF11C0772716
S11301907DBD6CBD80917200909173009EB5892BDA
S11301A08EBD06C064BD9091710085B5892B85BD57
S11301B080E00895813039F018F0823039F008C0B9
S11301C083B713BE05C08EB51EBC02C085B515BC71
S11301D080E00895813031F018F0823031F006C0AB
S11301E062BF04C07DBD6CBD01C064BD80E00895E4
S11301F061157105D9F0813059F018F0823079F029
S113020017C082B790E0FB019183808380E008955A
S11302108CB59DB5FB019183808380E0089584B5FE
S113022090E0FB019183808380E0089581E008954C
S113023080E008951F920F920FB60F9211242F930E
S11302403F938F939F93AF93BF9380916D00909151
S11302506E00A0916F00B09170000196A11DB11DB8
S113026080936D0090936E00A0936F00B093700024
S113027081E080936C00209176003091770080E0DB
S113028091E0821B930B82BFBF91AF919F918F919D
S11302903F912F910F900FBE0F901F9018951F92B2
S11302A00F920FB60F9211248F939F93AF93BF9326
S11302B080916D0090916E00A0916F00B0917000DC
S11302C00196A11DB11D80936D0090936E00A093C3
S11302D06F00B093700081E080936C008091760091
S11302E0909177009195819591099DBD8CBDBF91A9
S11302F0AF919F918F910F900FBE0F901F90189503
S11303001F920F920FB60F9211242F933F938F9346
S11303109F93AF93BF9380916D0090916E00A091D5
S11303206F00B09170000196A11DB11D80936D0006
S113033090936E00A0936F00B093700081E080935F
S11303406C00209176003091770080E091E0821B70
S1130350930B84BDBF91AF919F918F913F912F914A
S11303600F900FBE0F901F9018951F920F920FB60B
S11303700F9211240F900FBE0F901F901895FC013F
S1130380892BC9F090B58081892B86609281892B55
S11303909381892B80BD2AB184819581892B887FA3
S11303A0822B8AB99BB18681837E892B8BB987E6A0
S11303B089B980E0089581E00895009729F02CB16F
S11303C0FC01208384E0089581E00895009729F0DA
S11303D0FC0180818CB982E0089581E008958091C8
S11303E07500813021F41092750088E0089589E049
S11303F008951F920F920FB60F9211248F9381E0EC
S1130400809375008F910F900FBE0F901F901895D9
S1130410CF93DF931F92CDB7DEB77894198280E62D
S113042090E00E94BF010E94EF018830E1F7CE0105
S113043001960E94DD01CE0101960E94E601F3CFF0
S1070440F894FFCF5A
S10B0444000000808018000094
S9030000FC
