:100000000C942A000C9447000C9447000C9449006F
:100010000C9447000C94A0010C9447000C944700EA
:100020000C9447000C946E010C94D6010C9438018A
:100030000C9447000C9447000C9447000C94470024
:100040000C9447000C9447000C9447000C94470014
:100050000C94470011241FBECFE5D8E0DEBFCDBF12
:1000600010E0A0E6B0E0EAE5F9E002C005900D92EC
:10007000A438B107D9F720E0A4E8B0E001C01D9290
:10008000A43CB207E1F70E94A0000C94AB040C94CE
:10009000000078941F920F920FB60F9211242F93A5
:1000A0003F934F935F936F937F938F939F93AF9300
:1000B000BF93EF93FF9304B606FE12C060E070E0BA
:1000C00082E00E94D8008BB78F7D8BBF84B78F7B77
:1000D00084BF8AB780628ABF8BB780628BBF1FC024
:1000E00004B606FC1CC082E00E94F80064E870E0E0
:1000F00082E00E94160181E08093860060E070E05B
:1001000082E00E9408018BB78F7D8BBF84B780642B
:1001100084BF8AB780628ABF8BB780628BBFFF9132
:10012000EF91BF91AF919F918F917F916F915F916F
:100130004F913F912F910F900FBE0F901F901895E8
:100140000E94370380E090E00895FC01892B71F153
:10015000808191818130910561F018F00297C1F0A2
:100160001EC093B78281892B83BF868180938F00C5
:1001700016C02EB53FB582819381822B932B9FBDF4
:100180008EBD8681978190938E0080938D0007C0ED
:1001900095B58281892B85BD868180938C0078946A
:1001A00099B78085892B89BF80E0089581E0089503
:1001B000813059F018F0823099F018C062BF9091E8
:1001C0008F0083B7892B83BF11C077277DBD6CBD9E
:1001D00080918D0090918E009EB5892B8EBD06C0BA
:1001E00064BD90918C0085B5892B85BD80E0089514
:1001F000813039F018F0823039F008C083B713BE6F
:1002000005C08EB51EBC02C085B515BC80E0089542
:10021000813031F018F0823031F006C062BF04C086
:100220007DBD6CBD01C064BD80E0089561157105A0
:10023000D9F0813059F018F0823079F017C082B7C8
:1002400090E0FB019183808380E008958CB59DB59B
:10025000FB019183808380E0089584B590E0FB01E9
:100260009183808380E0089581E0089580E008957F
:1002700078941F920F920FB60F9211242F933F93F1
:100280008F939F93AF93BF93809188009091890043
:10029000A0918A00B0918B000196A11DB11D8093A1
:1002A000880090938900A0938A00B0938B0081E02E
:1002B00080938700209190003091910080E091E040
:1002C000821B930B82BFBF91AF919F918F913F9102
:1002D0002F910F900FBE0F901F90189578941F923A
:1002E0000F920FB60F9211248F939F93AF93BF93EA
:1002F0008091880090918900A0918A00B0918B0034
:100300000196A11DB11D8093880090938900A09350
:100310008A00B0938B0081E08093870080919000E9
:10032000909191009195819591099DBD8CBDBF9152
:10033000AF919F918F910F900FBE0F901F901895C6
:1003400078941F920F920FB60F9211242F933F9320
:100350008F939F93AF93BF93809188009091890072
:10036000A0918A00B0918B000196A11DB11D8093D0
:10037000880090938900A0938A00B0938B0081E05D
:1003800080938700209190003091910080E091E06F
:10039000821B930B84BDBF91AF919F918F913F9131
:1003A0002F910F900FBE0F901F90189578941F9269
:1003B0000F920FB60F9211240F900FBE0F901F9047
:1003C0001895CF93DF93009709F485C0EC018881DD
:1003D000813079F120F0823009F454C07EC084E786
:1003E00090E00E94A50080917A0090917B00059793
:1003F00009F075C069817A8180E090E00E948E03E7
:1004000020E030E04AE751E40E94F4030E945F03D9
:100410007093910060939000809190009091910072
:1004200060E071E0681B790B80E00E94080180E0C9
:100430005BC08AE690E00E94A500809170009091D8
:100440007100059709F04DC069817A8180E090E0E4
:100450000E948E0320E030E04AE751E40E94F4035A
:100460000E945F03709391006093900060919000F0
:100470007091910071956195710981E00E94080168
:1004800080E032C080E690E00E94A5008091660086
:1004900090916700079739F569817A8180E090E053
:1004A0000E948E0320E030E04AE751E40E94F4030A
:1004B0000E945F0370939100609390008091900080
:1004C0009091910060E071E0681B790B82E00E94DE
:1004D000080180E009C081E007C080E005C080E03D
:1004E00003C080E001C080E0DF91CF9108958F923A
:1004F0009F92AF92BF92CF92DF92EF92FF920F93B3
:100500001F93CF93DF9380917E0090917F0099237A
:100510000CF457C080918700813009F052C0809060
:10052000880090908900A0908A00B0908B00109273
:100530008700C2E9D0E000E010E0CC24CA94DC2CB3
:100540002A813B8140E050E0C501B4010E9489044A
:10055000672B682B692B51F581149104A104B10418
:1005600029F1E881F98109958C818130F9F4809134
:100570007E0090917F00009729F4D0927F00C09276
:100580007E0014C0FC01EE0FFF1FEE0FFF1FE80FEF
:10059000F91FEE56FF4F25E0DE0101900D922A95DE
:1005A000E1F7019790937F0080937E000F5F1F4FCC
:1005B000259680917E0090917F00801791070CF026
:1005C000BFCF84E0DF91CF911F910F91FF90EF900B
:1005D000DF90CF90BF90AF909F908F90089561155E
:1005E000710529F1E0917E00F0917F003A970CF5BA
:1005F000E0E0F0E0718360839383828344838091A1
:100600007E0090917F00019690937F0080937E0002
:10061000DC01AA0FBB1FAA0FBB1FA80FB91FAE5644
:10062000BF4F85E001900D928A95E1F703C025E068
:1006300001C023E0822F08958FEF87BB98B380E13C
:10064000892788BB08958FEF87BB98B380E28927FD
:1006500088BB08958FEF87BB98B380E4892788BB58
:1006600008958FEF87BB88B3805888BB089580E8D2
:1006700090E00E94E10140E06CE173E083E090E0F3
:100680000E94EF0240E063E273E084E190E00E94A8
:10069000EF0240E06AE273E082E390E00E94EF0242
:1006A00040E061E373E08CE390E00E94EF0260E0E1
:1006B00070E081E00E94D8000E947702FDCF0E9486
:1006C000D30388F09F5798F0B92F9927B751B0F00E
:1006D000E1F0660F771F881F991F1AF0BA95C9F7C6
:1006E00014C0B13091F00E94ED03B1E008950C9474
:1006F000ED03672F782F8827B85F39F0B93FCCF327
:10070000869577956795B395D9F73EF49095809542
:10071000709561957F4F8F4F9F4F0895E89409C062
:1007200097FB3EF490958095709561957F4F8F4F24
:100730009F4F9923A9F0F92F96E9BB279395F6953A
:10074000879577956795B795F111F8CFFAF4BB0FB8
:1007500011F460FF1BC06F5F7F4F8F4F9F4F16C01C
:10076000882311F096E911C0772321F09EE8872FA6
:10077000762F05C0662371F096E8862F70E060E062
:100780002AF09A95660F771F881FDAF7880F9695DB
:10079000879597F9089557FD9058440F551F59F0C4
:1007A0005F3F71F04795880F97FB991F61F09F3F5E
:1007B00079F087950895121613061406551FF2CF87
:1007C0004695F1DF08C0161617061806991FF1CFD7
:1007D00086957105610508940895E894BB276627FE
:1007E0007727CB0197F908950E9407040C947804A9
:1007F0000E946A0438F00E94710420F0952311F0E1
:100800000C9461040C94670411240C94EE030E9470
:10081000CB0370F3959FC1F3950F50E0551F629F76
:10082000F001729FBB27F00DB11D639FAA27F00D49
:10083000B11DAA1F649F6627B00DA11D661F829F70
:100840002227B00DA11D621F739FB00DA11D621F55
:10085000839FA00D611D221F749F3327A00D611D72
:10086000231F849F600D211D822F762F6A2F112454
:100870009F5750409AF0F1F088234AF0EE0FFF1F87
:10088000BB1F661F771F881F91505040A9F79E3FDE
:10089000510580F00C9461040C94EE035F3FE4F387
:1008A000983ED4F3869577956795B795F795E79534
:1008B0009F5FC1F7FE2B880F911D9695879597F93D
:1008C000089597F99F6780E870E060E008959FEFD2
:1008D00080EC089500240A941616170618060906D7
:1008E000089500240A9412161306140605060895A6
:1008F000092E0394000C11F4882352F0BB0F40F42E
:10090000BF2B11F460FF04C06F5F7F4F8F4F9F4F6D
:100910000895A1E21A2EAA1BBB1BFD010DC0AA1F40
:10092000BB1FEE1FFF1FA217B307E407F50720F058
:10093000A21BB30BE40BF50B661F771F881F991FD3
:100940001A9469F760957095809590959B01AC011C
:0A095000BD01CF010895F894FFCF18
:10095A000200000020000700400001000000002003
:10096A000500040000000000200005000100FFFF50
:04097A000101000077
:00000001FF
