:100000000C942A000C9447000C9447000C94AA000E
:100010000C9447000C942D020C9447000C9447005C
:100020000C9447000C94FC010C9462020C94C701E0
:100030000C9440010C94A1020C9447000C94C8024B
:100040000C9447000C9447000C9447000C94470014
:100050000C94470011241FBECFE5D8E0DEBFCDBF12
:1000600010E0A0E6B0E0ECE5F7E002C005900D92EC
:10007000A038B107D9F721E0A0E8B0E001C01D9297
:10008000A031B207E1F70E9400010C94AC030C947C
:10009000000080918100843619F493E090938000F1
:1000A00091E0980F9093810090E08E579F4F0E94AF
:1000B0008A020895CF93DF931F92CDB7DEB71982DE
:1000C00080E790E00E94570364E670E082E890E0E9
:1000D0000E94480389E490E00E94970282E790E042
:1000E0000E946C0288E48AB985E0809380000E94B7
:1000F000870314E0CE0101960E943E03898183307C
:1001000019F0843069F0F6CF0E949303CE01019676
:100110000E943E0389818330B9F310938000EACFB7
:1001200080918000833091F0843021F780918100AC
:1001300091E0980F9093810090E08E579F4F0E941E
:100140008A02809180008430F1F3D4CF1092810034
:100150001982D0CF1F920F920FB60F9211242F93B6
:100160003F934F935F936F937F938F939F93AF933F
:10017000BF93EF93FF9304B606FE12C060E070E0F9
:1001800082E00E9467018BB78F7D8BBF84B78F7B26
:1001900084BF8AB780628ABF8BB780628BBF1FC063
:1001A00004B606FC1CC082E00E94870166EE70E087
:1001B00082E00E94A50181E08093E80060E070E0A9
:1001C00082E00E9497018BB78F7D8BBF84B78064DC
:1001D00084BF8AB780628ABF8BB780628BBFFF9172
:1001E000EF91BF91AF919F918F917F916F915F91AF
:1001F0004F913F912F910F900FBE0F901F90189528
:100200000E945A0080E090E00895FC01892BE1F003
:100210008181882309F078949EB18681892B8EB9DB
:100220009DB18181892B9081892B9281892B93812A
:10023000892B9481892B9581892B8DB997B38781DF
:10024000892B87BB80E0089581E008956E9A089518
:100250006E9808958FB982E00895009729F02FB124
:10026000FC01208388E0089581E00895009731F033
:100270009093EA008093E90086E0089587E008956E
:100280001F920F920FB60F9211242F933F934F930B
:100290005F936F937F938F939F93AF93BF93EF93EE
:1002A000FF93E091E900F091EA000995FF91EF9149
:1002B000BF91AF919F918F917F916F915F914F917E
:1002C0003F912F910F900FBE0F901F901895813086
:1002D00059F018F0823099F018C062BF9091F30085
:1002E00083B7892B83BF11C077277DBD6CBD8091FB
:1002F000F1009091F2009EB5892B8EBD06C064BDC1
:100300009091F00085B5892B85BD80E008958130FE
:1003100039F018F0823039F008C083B713BE05C039
:100320008EB51EBC02C085B515BC80E00895813035
:1003300031F018F0823031F006C062BF04C07DBDDC
:100340006CBD01C064BD80E0089561157105D9F0F0
:10035000813059F018F0823079F017C082B790E000
:10036000FB019183808380E008958CB59DB5FB01EE
:100370009183808380E0089584B590E0FB019183B0
:10038000808380E0089581E0089580E008951F92C1
:100390000F920FB60F9211242F933F938F939F9339
:1003A000AF93BF938091EC009091ED00A091EE008F
:1003B000B091EF000196A11DB11D8093EC009093C8
:1003C000ED00A093EE00B093EF0081E08093EB008E
:1003D000209102013091030180E091E0821B930B98
:1003E00082BFBF91AF919F918F913F912F910F90BD
:1003F0000FBE0F901F9018951F920F920FB60F927D
:1004000011248F939F93AF93BF938091EC009091B1
:10041000ED00A091EE00B091EF000196A11DB11D7D
:100420008093EC009093ED00A093EE00B093EF006A
:1004300081E08093EB0080910201909103019195FE
:10044000819591099DBD8CBDBF91AF919F918F9179
:100450000F900FBE0F901F9018951F920F920FB61E
:100460000F9211242F933F938F939F93AF93BF933A
:100470008091EC009091ED00A091EE00B091EF0022
:100480000196A11DB11D8093EC009093ED00A09307
:10049000EE00B093EF0081E08093EB002091020129
:1004A0003091030180E091E0821B930B84BDBF91EA
:1004B000AF919F918F913F912F910F900FBE0F9011
:1004C0001F9018951F920F920FB60F9211240F9044
:1004D0000FBE0F901F901895FC01892BC9F090B5A5
:1004E0008081892B86609281892B9381892B80BDA5
:1004F0008AB12581287F9481892B822B8AB99BB16F
:100500008681837E892B8BB987E689B980E008953F
:1005100081E00895009739F0FC0180818CB982E078
:100520008093F400089581E08093F400089500978B
:1005300031F09093F8008093F7008AE0089581E00D
:1005400008951F920F920FB60F9211242F933F938D
:100550004F935F936F937F938F939F93AF93BF93CB
:10056000EF93FF93E091F500F091F6000995FF916C
:10057000EF91BF91AF919F918F917F916F915F911B
:100580004F913F912F910F900FBE0F901F90189594
:100590001F920F920FB60F9211242F933F934F93F8
:1005A0005F936F937F938F939F93AF93BF93EF93DB
:1005B000FF93E091F700F091F8000995FF91EF911A
:1005C000BF91AF919F918F917F916F915F914F916B
:1005D0003F912F910F900FBE0F901F901895209173
:1005E0000C0130910D01215031098091FA00909158
:1005F000FB002817390761F486E08093FF008091A3
:100600000A0190910B01820F931F0E942D01089502
:1006100020910A0130910B01820F931F0E942D013E
:100620008091FA009091FB0001969093FB008093DB
:10063000FA0082E08093FF0008958091FC00909181
:10064000FD0020910601309107012817390721F498
:1006500084E08093FE0008951092FE00019690932E
:10066000FD008093FC002091040130910501F90107
:10067000E80FF91F80810E942A010895009731F048
:1006800020910101FC0120838BE0089581E0089511
:10069000009759F0EAE0F1E09183808373836283ED
:1006A00081E08583148288E0089581E008950097B1
:1006B00061F1FC018081813019F0823089F01FC026
:1006C0001092000181818093F9008130C1F488E6A5
:1006D00090E00E9405018DE193E00E9436010FC079
:1006E0001092010181818093F900813041F480E60C
:1006F00090E00E9405018FEE92E00E94360189E7AA
:1007000090E00E946C0280E0089581E008951092CC
:100710000F0183E0809301018091F900813011F491
:100720000E9426010895809101018330A1F48091F7
:10073000FF00863081F41092FB001092FA0081E0F5
:1007400080930F0184E0809301018091F900813052
:0C07500011F40E9428010895F894FFCFD6
:10075C00008020000003004000802010000300B047
:10076C00020100000080400800000000808018009A
:00000001FF
