:100000000C942A000C9447000C9447000C9449006F
:100010000C9447000C9481010C9447000C94470009
:100020000C9447000C945E010C94A7010C943801C9
:100030000C9447000C9447000C9447000C94470024
:100040000C9447000C9447000C9447000C94470014
:100050000C94470011241FBECFE5D8E0DEBFCDBF12
:1000600010E0A0E6B0E0ECEFF6E002C005900D92E3
:10007000A238B107D9F720E0A2E8B0E001C01D9294
:10008000AB38B207E1F70E94A0000C947C030C94FB
:10009000000078941F920F920FB60F9211242F93A5
:1000A0003F934F935F936F937F938F939F93AF9300
:1000B000BF93EF93FF9304B606FE12C060E070E0BA
:1000C00082E00E94D8008BB78F7D8BBF84B78F7B77
:1000D00084BF8AB780628ABF8BB780628BBF1FC024
:1000E00004B606FC1CC082E00E94F80062E870E0E2
:1000F00082E00E94160181E08093840060E070E05D
:1001000082E00E9408018BB78F7D8BBF84B780642B
:1001100084BF8AB780628ABF8BB780628BBFFF9132
:10012000EF91BF91AF919F918F917F916F915F916F
:100130004F913F912F910F900FBE0F901F901895E8
:100140000E94480280E090E00895FC01892B71F143
:10015000808191818130910561F018F00297C1F0A2
:100160001EC093B78281892B83BF868180938800CC
:1001700016C02EB53FB582819381822B932B9FBDF4
:100180008EBD86819781909387008093860007C0FB
:1001900095B58281892B85BD868180938500789471
:1001A00099B78085892B89BF80E0089581E0089503
:1001B000813059F018F0823099F018C062BF9091E8
:1001C000880083B7892B83BF11C077277DBD6CBDA5
:1001D00080918600909187009EB5892B8EBD06C0C8
:1001E00064BD9091850085B5892B85BD80E008951B
:1001F000813039F018F0823039F008C083B713BE6F
:1002000005C08EB51EBC02C085B515BC80E0089542
:10021000813031F018F0823031F006C062BF04C086
:100220007DBD6CBD01C064BD80E0089561157105A0
:10023000D9F0813059F018F0823079F017C082B7C8
:1002400090E0FB019183808380E008958CB59DB59B
:10025000FB019183808380E0089584B590E0FB01E9
:100260009183808380E0089581E0089580E008957F
:1002700078941F920F920FB60F9211242F933F93F1
:100280008F939F938091890090918A0082BF2091E3
:10029000890030918A0080E091E0821B930B82BF3D
:1002A0008FEF87BB88B3809588BB9F918F913F91DB
:1002B0002F910F900FBE0F901F90189578941F925A
:1002C0000F920FB60F9211248F939F938091890004
:1002D00090918A009DBD8CBD8091890090918A008B
:1002E0009195819591099DBD8CBD8FEF87BB88B39A
:1002F000809588BB9F918F910F900FBE0F901F909C
:10030000189578941F920F920FB60F9211242F9385
:100310003F938F939F938091890090918A0084BD31
:100320002091890030918A0080E091E0821B930B3C
:1003300084BD8FEF87BB88B3809588BB9F918F91D9
:100340003F912F910F900FBE0F901F9018957894AA
:100350001F920F920FB60F9211240F900FBE0F90A5
:100360001F901895CF93DF93009709F485C0EC0197
:100370008881813079F120F0823009F454C07EC048
:1003800084E790E00E94A50080917A0090917B0024
:10039000059709F075C069817A8180E090E00E943C
:1003A000810220E030E04AE751E40E94E7020E9427
:1003B000520270938A006093890080918900909125
:1003C0008A0060E071E0681B790B80E00E94080100
:1003D00080E05BC08AE690E00E94A50080917000FA
:1003E00090917100059709F04DC069817A8180E094
:1003F00090E00E94810220E030E04AE751E40E9450
:10040000E7020E94520270938A0060938900609113
:10041000890070918A0071956195710981E00E944F
:10042000080180E032C080E690E00E94A500809143
:10043000660090916700079739F569817A8180E0BD
:1004400090E00E94810220E030E04AE751E40E94FF
:10045000E7020E94520270938A00609389008091A3
:10046000890090918A0060E071E0681B790B82E05E
:100470000E94080180E009C081E007C080E005C05B
:1004800080E003C080E001C080E0DF91CF9108955B
:100490008EE790E00E94B20160E070E081E00E948F
:1004A000D800FFCF0E94C60288F09F5798F0B92F5E
:1004B0009927B751B0F0E1F0660F771F881F991F99
:1004C0001AF0BA95C9F714C0B13091F00E94E00259
:1004D000B1E008950C94E002672F782F8827B85F69
:1004E00039F0B93FCCF3869577956795B395D9F7F1
:1004F0003EF490958095709561957F4F8F4F9F4FFB
:100500000895E89409C097FB3EF490958095709506
:1005100061957F4F8F4F9F4F9923A9F0F92F96E94F
:10052000BB279395F695879577956795B795F111C4
:10053000F8CFFAF4BB0F11F460FF1BC06F5F7F4F61
:100540008F4F9F4F16C0882311F096E911C0772373
:1005500021F09EE8872F762F05C0662371F096E87C
:10056000862F70E060E02AF09A95660F771F881F4B
:10057000DAF7880F9695879597F9089557FD905863
:10058000440F551F59F05F3F71F04795880F97FB57
:10059000991F61F09F3F79F0879508951216130611
:1005A0001406551FF2CF4695F1DF08C01616170640
:1005B0001806991FF1CF8695710561050894089575
:1005C000E894BB2766277727CB0197F908950E9407
:1005D000FA020C946B030E945D0338F00E946403DE
:1005E00020F0952311F00C9454030C945A03112419
:1005F0000C94E1020E94BE0270F3959FC1F3950F27
:1006000050E0551F629FF001729FBB27F00DB11D96
:10061000639FAA27F00DB11DAA1F649F6627B00D26
:10062000A11D661F829F2227B00DA11D621F739F0F
:10063000B00DA11D621F839FA00D611D221F749F1D
:100640003327A00D611D231F849F600D211D822F64
:10065000762F6A2F11249F5750409AF0F1F088238B
:100660004AF0EE0FFF1FBB1F661F771F881F9150B8
:100670005040A9F79E3F510580F00C9454030C9410
:10068000E1025F3FE4F3983ED4F386957795679552
:10069000B795F795E7959F5FC1F7FE2B880F911DE2
:1006A0009695879597F9089597F99F6780E870E088
:1006B00060E008959FEF80EC089500240A941616D8
:1006C000170618060906089500240A941216130640
:1006D000140605060895092E0394000C11F48823CE
:1006E00052F0BB0F40F4BF2B11F460FF04C06F5FEA
:0C06F0007F4F8F4F9F4F0895F894FFCF6D
:1006FC000200000020000700400001000000002064
:10070C0005000400000000002000050001000105A8
:02071C000000DB
:00000001FF
