S01900004F62737461636C65446574656374696F6E2E737265633F
S11300000C942A000C9447000C9447000C9449006B
S11300100C9447000C944E010C9447000C94470038
S11300200C9447000C942B010C9474010C9405015E
S11300300C9447000C9447000C9447000C94470020
S11300400C9447000C9447000C9447000C94470010
S11300500C94470011241FBECFE5D8E0DEBFCDBF0E
S113006010E0A0E6B0E0E4E0F3E002C005900D92F9
S1130070A036B107D9F720E0A0E6B0E001C01D9298
S1130080A936B207E1F70E94A0000C9480010C94F9
S1130090000078941F920F920FB60F9211242F93A1
S11300A03F934F935F936F937F938F939F93AF93FC
S11300B0BF93EF93FF9304B606FE12C060E070E0B6
S11300C082E00E94A5008BB78F7D8BBF84B78F7BA6
S11300D084BF8AB780628ABF8BB780628BBF1FC020
S11300E004B606FC1CC082E00E94C50060E670E015
S11300F082E00E94E30081E08093620060E070E0AF
S113010082E00E94D5008BB78F7D8BBF84B780645B
S113011084BF8AB780628ABF8BB780628BBFFF912E
S1130120EF91BF91AF919F918F917F916F915F916B
S11301304F913F912F910F900FBE0F901F901895E4
S11301400E947F0180E090E00895813059F018F01A
S1130150823099F018C062BF9091660083B7892BF2
S113016083BF11C077277DBD6CBD809164009091E1
S113017065009EB5892B8EBD06C064BD9091630059
S113018085B5892B85BD80E00895813039F018F05C
S1130190823039F008C083B713BE05C08EB51EBCCB
S11301A002C085B515BC80E00895813031F018F0A7
S11301B0823031F006C062BF04C07DBD6CBD01C099
S11301C064BD80E0089561157105D9F0813059F05E
S11301D018F0823079F017C082B790E0FB01918368
S11301E0808380E008958CB59DB5FB019183808365
S11301F080E0089584B590E0FB019183808380E0E2
S1130200089581E0089580E0089578941F920F92F4
S11302100FB60F9211242F933F938F939F93809146
S113022067009091680082BF209167003091680058
S113023080E091E0821B930B82BF8FEF87BB88B372
S1130240809588BB9F918F913F912F910F900FBE06
S11302500F901F90189578941F920F920FB60F92DB
S113026011248F939F9380916700909168009DBDA6
S11302708CBD80916700909168009195819591095A
S11302809DBD8CBD8FEF87BB88B3809588BB9F9144
S11302908F910F900FBE0F901F90189578941F9216
S11302A00F920FB60F9211242F933F938F939F9326
S11302B0809167009091680084BD2091670030911F
S11302C0680080E091E0821B930B84BD8FEF87BBB5
S11302D088B3809588BB9F918F913F912F910F9008
S11302E00FBE0F901F90189578941F920F920FB61F
S11302F00F9211240F900FBE0F901F901895089520
S1070300F894FFCF9B
S9030000FC
