:100000000C942A000C9447000C9447000C9449006F
:100010000C9447000C94D7010C9447000C944700B3
:100020000C9447000C94B0010C94FE010C948901CF
:100030000C94A4000C9408020C9447000C942F021A
:100040000C9447000C9447000C9447000C94470014
:100050000C94470011241FBECFE5D8E0DEBFCDBF12
:1000600010E0A0E6B0E0E6E2FBE002C005900D92F1
:10007000A23AB107D9F721E0A2EAB0E001C01D928F
:10008000A331B207E1F70E949F000C9491050C94F4
:1000900000001F920F920FB60F9211242F933F93DF
:1000A0004F935F936F937F938F939F93AF93BF9380
:1000B000EF93FF9304B606FE12C060E070E082E0AA
:1000C0000E9429018BB78F7D8BBF84B78F7B84BF44
:1000D0008AB780628ABF8BB780628BBF1FC004B6AD
:1000E00006FC1CC082E00E94490162EA70E082E0E6
:1000F0000E94670181E08093A40060E070E082E0EC
:100100000E9459018BB78F7D8BBF84B7806484BFF9
:100110008AB780628ABF8BB780628BBFFF91EF91F5
:10012000BF91AF919F918F917F916F915F914F910F
:100130003F912F910F900FBE0F901F9018950E9426
:100140003A0480E090E008951F920F920FB60F924C
:1001500011242F933F934F935F936F937F938F93CC
:100160009F93AF93BF93EF93FF93E091A500F0911E
:10017000A6000995FF91EF91BF91AF919F918F914B
:100180007F916F915F914F913F912F910F900FBE93
:100190000F901F90189541155105F1F0813061F0D5
:1001A00018F0823089F01AC06130D1F45093AC005D
:1001B0004093AB0080E008956130A1F45093AA0011
:1001C0004093A90080E00895613071F45093A80035
:1001D0004093A70080E0089581E0089580E00895AD
:1001E00080E0089580E0089580E00895FC01892B67
:1001F00071F1808191818130910561F018F0029751
:10020000C1F01EC093B78281892B83BF8681809302
:10021000B00016C02EB53FB582819381822B932BFF
:100220009FBD8EBD868197819093AF008093AE0075
:1002300007C095B58281892B85BD86818093AD00ED
:10024000789499B78085892B89BF80E0089581E0F3
:100250000895813059F018F0823099F018C062BFCB
:100260009091B00083B7892B83BF11C077277DBDE4
:100270006CBD8091AE009091AF009EB5892B8EBD74
:1002800006C064BD9091AD0085B5892B85BD80E029
:100290000895813039F018F0823039F008C083B702
:1002A00013BE05C08EB51EBC02C085B515BC80E06E
:1002B0000895813031F018F0823031F006C062BF0D
:1002C00004C07DBD6CBD01C064BD80E008956115B2
:1002D0007105D9F0813059F018F0823079F017C0EB
:1002E00082B790E0FB019183808380E008958CB514
:1002F0009DB5FB019183808380E0089584B590E0F3
:10030000FB019183808380E0089581E0089580E07F
:1003100008951F920F920FB60F9211242F933F93BF
:100320004F935F936F937F938F939F93AF93BF93FD
:10033000EF93FF93E091AB00F091AC000995FF9132
:10034000EF91BF91AF919F918F917F916F915F914D
:100350004F913F912F910F900FBE0F901F901895C6
:100360001F920F920FB60F9211242F933F934F932A
:100370005F936F937F938F939F93AF93BF93EF930D
:10038000FF93E091A900F091AA000995FF91EF91E8
:10039000BF91AF919F918F917F916F915F914F919D
:1003A0003F912F910F900FBE0F901F9018951F92A5
:1003B0000F920FB60F9211242F933F934F935F9399
:1003C0006F937F938F939F93AF93BF93EF93FF931D
:1003D000E091A700F091A8000995FF91EF91BF91DE
:1003E000AF919F918F917F916F915F914F913F91CD
:1003F0002F910F900FBE0F901F9018951F920F9284
:100400000FB60F9211240F900FBE0F901F901895EA
:100410001F920F920FB60F9211242F933F934F9379
:100420005F936F937F938F939F93AF93BF93EF935C
:10043000FF93E091B100F091B2000995FF91EF9127
:10044000BF91AF919F918F917F916F915F914F91EC
:100450003F912F910F900FBE0F901F9018951F92F4
:100460000F920FB60F9211242F933F934F935F93E8
:100470006F937F938F939F93AF93BF93EF93FF936C
:10048000E091B300F091B4000995FF91EF91BF9115
:10049000AF919F918F917F916F915F914F913F911C
:1004A0002F910F900FBE0F901F901895089581E027
:1004B0008093B6006091B7007091B80082E00E940E
:1004C0005901089581E08093B6006091B700709162
:1004D000B8000E945901089581E08093B6006091B0
:1004E000B7007091B80080E00E9459010895CF9341
:1004F000DF93009709F48AC0EC019881913081F173
:1005000020F0923009F456C083C01092B50084E701
:1005100090E00E94F60080919800909199000597D4
:10052000B9F469817A8180E090E00E94960420E02D
:1005300030E04AE751E40E94FC040E94670420E096
:1005400031E0C901861B970B9093B8008093B700E8
:100550004CE652E061E080E00E94CB0080E059C0B0
:1005600081E08093B5008AE690E00E94F6008091D9
:100570008E0090918F000597A9F469817A8180E0BF
:1005800090E00E94960420E030E04AE751E40E94A7
:10059000FC040E9467047195619571097093B8001D
:1005A0006093B70042E652E061E081E00E94CB0038
:1005B00080E02FC082E08093B50080E690E00E944A
:1005C000F60080918400909185000797B9F46981C5
:1005D0007A8180E090E00E94960420E030E04AE7D3
:1005E00051E40E94FC040E94670420E031E0C9014C
:1005F000861B970B9093B8008093B70047E552E0B5
:1006000061E082E00E94CB0080E003C081E001C095
:1006100080E0DF91CF910895AF92BF92CF92DF92A9
:10062000EF92FF920F931F93CF93DF9380919C00E3
:1006300090919D0099230CF441C08091B6008130C7
:10064000E9F51092B600C9EBD0E000E010E00F2E03
:10065000F6E5AF2EF2E0BF2EF02DCC24CA94DC2CB0
:100660008D819E8101969E838D8328813981821799
:100670009307D1F41E821D82EF81F88509958C8144
:10068000813091F48F8198858655924069F08091F0
:100690009C0090919D00892B29F4D0929D00C092DE
:1006A0009C0002C0B886AF820F5F1F4F29968091D1
:1006B0009C0090919D008017910794F684E0DF9153
:1006C000CF911F910F91FF90EF90DF90CF90BF904F
:1006D000AF9008956115710561F1E0919C00F09172
:1006E0009D003A9744F5E0E0F0E0918380834483F5
:1006F00016821582338322837087678380919C00E2
:1007000090919D00019690939D0080939C00DC0148
:10071000AA0FBB1FAA0FBB1FAA0FBB1FA80FB91F91
:10072000A754BF4F89E001900D928A95E1F780E0D0
:10073000089585E0089583E008950F931F93CF9364
:10074000DF93CDB7DEB729970FB6F894DEBF0FBEA3
:10075000CDBF80919C0090919D00009709F444C00A
:100760008C0101501109BC01660F771F660F771FBE
:10077000660F771F680F791F67547F4F2EC0FC01EB
:10078000228133814385548542175307D8F428BB0F
:10079000238525BB29E0DE01119601900D922A9553
:1007A000E1F729E0FC013996DC0101900D922A95D0
:1007B000E1F729E0FE013196DC01199601900D92D6
:1007C0002A95E1F7099668177907C9F60115110509
:1007D00059F001501109695071090F3FFFEF1F07D0
:1007E000C1F389EB90E0CBCF8091B500813061F00F
:1007F00018F0823089F017C06091B7007091B8008E
:1008000080E00E9429010FC06091B7007091B8008C
:1008100081E00E94290107C06091B7007091B80083
:1008200082E00E94290186E029960FB6F894DEBF87
:100830000FBECDBFDF91CF911F910F9108958FEF24
:100840008ABB9BB380E189278BBB08958FEF8ABB5E
:100850009BB380E289278BBB08958FEF8ABB9BB344
:1008600080E489278BBB08958FEF8ABB8BB38058B8
:100870008BBB08958EE990E00E94770220E030E083
:1008800041E06FE174E081E090E00E946A0322E0C1
:1008900030E040E066E274E08EE190E00E946A039E
:1008A00023E030E040E06DE274E08EE190E00E94F1
:1008B0006A0321E030E040E064E374E08EE190E020
:1008C0000E946A030E949D030E940C03FDCF0E94B8
:1008D000DB0488F09F5798F0B92F9927B751B0F0F3
:1008E000E1F0660F771F881F991F1AF0BA95C9F7B4
:1008F00014C0B13091F00E94F504B1E008950C9459
:10090000F504672F782F8827B85F39F0B93FCCF30B
:10091000869577956795B395D9F73EF49095809530
:10092000709561957F4F8F4F9F4F0895E89409C050
:1009300097FB3EF490958095709561957F4F8F4F12
:100940009F4F9923A9F0F92F96E9BB279395F69528
:10095000879577956795B795F111F8CFFAF4BB0FA6
:1009600011F460FF1BC06F5F7F4F8F4F9F4F16C00A
:10097000882311F096E911C0772321F09EE8872F94
:10098000762F05C0662371F096E8862F70E060E050
:100990002AF09A95660F771F881FDAF7880F9695C9
:1009A000879597F9089557FD9058440F551F59F0B2
:1009B0005F3F71F04795880F97FB991F61F09F3F4C
:1009C00079F087950895121613061406551FF2CF75
:1009D0004695F1DF08C0161617061806991FF1CFC5
:1009E00086957105610508940895E894BB276627EC
:1009F0007727CB0197F908950E940F050C94800585
:100A00000E94720538F00E94790520F0952311F0BC
:100A10000C9469050C946F0511240C94F6040E9443
:100A2000D30470F3959FC1F3950F50E0551F629F5B
:100A3000F001729FBB27F00DB11D639FAA27F00D37
:100A4000B11DAA1F649F6627B00DA11D661F829F5E
:100A50002227B00DA11D621F739FB00DA11D621F43
:100A6000839FA00D611D221F749F3327A00D611D60
:100A7000231F849F600D211D822F762F6A2F112442
:100A80009F5750409AF0F1F088234AF0EE0FFF1F75
:100A9000BB1F661F771F881F91505040A9F79E3FCC
:100AA000510580F00C9469050C94F6045F3FE4F363
:100AB000983ED4F3869577956795B795F795E79522
:100AC0009F5FC1F7FE2B880F911D9695879597F92B
:100AD000089597F99F6780E870E060E008959FEFC0
:100AE00080EC089500240A941616170618060906C5
:100AF000089500240A941216130614060506089594
:100B0000092E0394000C11F4882352F0BB0F40F41B
:100B1000BF2B11F460FF04C06F5F7F4F8F4F9F4F5B
:060B20000895F894FFCFD8
:100B26000200000020000700400001000000002035
:100B3600050004000000000020000500010002007E
:100B46000000200007004000010000000020050012
:100B5600040000000000200005000100FFFF020362
:020B660000008D
:00000001FF
