S01900004F62737461636C65446574656374696F6E2E737265633F
S11300000C942A000C9447000C9447000C940F03A2
S11300100C9447000C94A7050C9447000C944700DB
S11300200C9447000C9480050C94CE050C9459054F
S11300300C9474040C94D8050C9447000C94FF059C
S11300400C9447000C9447000C9447000C94470010
S11300500C94470011241FBECFE5D8E0DEBFCDBF0E
S113006010E0A0E6B0E0EEE0F3E102C005900D92EE
S1130070A03BB107D9F721E0A0EBB0E001C01D928D
S1130080A133B207E1F70E9498030C9485090C94FC
S1130090000080913001843061F4809160008823F5
S11300A041F090912F019093300181508093600032
S11300B0089582E08093600085E080933001089584
S11300C080913001853011F4109230010895CF935E
S11300D0809130018330A9F580EB90E00E944306C3
S11300E0C82F8091B0009091B100A091B200B0915E
S11300F0B30089319105A105B10528F468E284E0D3
S11301000E944D0110C04997A109B1090B97A1059F
S1130110B10528F462E383E00E944D0104C063E268
S113012082E00E944D01813031F0C83021F081E03D
S11301308093300106C083E080932F0184E0809394
S11301403001CF91089580913001823071F40E9482
S11301506A03813021F083E080933001089582E0C6
S113016080932F0184E080933001089580913001C1
S1130170813071F40E945A03813021F082E080932F
S11301803001089581E080932F0184E08093300151
S113019008951F93CF93DF9380913001811120C084
S11301A00E943603C82F81E690E00E94EB02D82F0C
S11301B061E082E00E94FC02182F0E943501C130E8
S11301C051F0D13041F0813031F0113021F081E033
S11301D08093300105C010922F0184E08093300198
S11301E0DF91CF911F910895109230018DEA90E034
S11301F00E94770620E030E040E069EC70E081E0A6
S113020090E00E946A0721E030E040E066EB70E095
S113021081E090E00E946A0722E030E040E063EA77
S113022070E08DE090E00E946A0723E030E040E057
S113023067E670E081E090E00E946A0724E030E025
S113024040E069E470E081E090E00E946A0725E004
S113025030E040E060E670E081E090E00E946A07F0
S11302600E949D070E940C07FDCF81E00E9495012A
S113027082E00E94950161E081E00E94E70161E073
S113028082E00E94E70164E181E00E94590264E196
S113029082E00E94590280E00895CF93DF93C82F33
S11302A0D62F81E00E9489026D2F82E00E9489028C
S11302B0C230E9F028F4CC2341F0C13079F031C0E8
S11302C0C33039F1C430E1F02CC060E081E00E9419
S11302D0E70160E082E00E94E70123C061E081E081
S11302E00E94E70161E082E00E94E7011AC062E037
S11302F081E00E94E70162E082E00E94E70111C010
S113030062E081E00E94E70161E082E00E94E7018F
S113031008C061E081E00E94E70162E082E00E949F
S1130320E70180E0DF91CF9108950F931F93CF935E
S1130330DF93CDB7DEB729970FB6F894DEBF0FBEB3
S1130340CDBF813019F08230E1F035C003E00F8376
S113035080E188871FEF1987CE0107960E949D03CD
S11303600C8384E08D831E83CE0104960E949D033A
S1130370098388E08A831B83CE0101960E949D0332
S11303801AC003E00F8380E288871FEF1987CE012C
S113039007960E949D030C8380E48D831E83CE0107
S11303A004960E949D03098380E88A831B83CE01FF
S11303B001960E949D0380E029960FB6F894DEBF53
S11303C00FBECDBFDF91CF911F910F910895813062
S11303D019F08230B9F16BC06130A1F018F06230CD
S11303E009F165C040E060E183E00E94EA0340E077
S11303F064E083E00E94EA0340E068E083E00E9456
S1130400EA0355C04FEF60E183E00E94EA0340E055
S113041064E083E00E94EA034FEF68E083E00E9417
S1130420EA0345C04FEF60E183E00E94EA034FEF27
S113043064E083E00E94EA0340E068E083E00E9415
S1130440EA0335C06130A1F018F0623009F12FC021
S113045040E060E283E00E94EA0340E060E483E07D
S11304600E94EA0340E060E883E00E94EA031FC0C0
S11304704FEF60E283E00E94EA0340E060E483E03F
S11304800E94EA034FEF60E883E00E94EA030FC092
S11304904FEF60E283E00E94EA034FEF60E483E001
S11304A00E94EA0340E060E883E00E94EA0380E0FF
S11304B00895CF93DF93653630F5D62FC82F83E6A2
S11304C090E00E9421048C2F0E94950161E08C2F02
S11304D00E94E701C13019F0C23059F016C02AEF6A
S11304E030E040E050E06D2F81E00E943B0480E06A
S11304F00DC02AEF30E040E050E06D2F82E00E9412
S11305003B0480E003C081E001C080E0DF91CF9133
S113051008956536B8F4813019F0823051F014C072
S11305202AEF30E040E050E081E00E943B0480E0AC
S113053008952AEF30E040E050E082E00E943B045E
S113054080E0089581E0089580E008958BB78F7D61
S11305508BBF84B7806484BF8AB780628ABF8BB73D
S113056080628BBF08958BB78F7D8BBF84B78F7BE1
S113057084BF8AB780628ABF8BB780628BBF0895BD
S113058004B606FE09C060E070E08091B4000E94E9
S1130590F9040E94B302089504B606FC1BC08091BE
S11305A0B4000E94190567EB70E08091B4000E94CA
S11305B037058091B7009091B8000E94260681E02B
S11305C08093B90060E070E08091B4000E94290536
S11305D00E94A6020895FC012181223059F48081F1
S11305E0823041F481EA90E00E94C60482E0809364
S11305F0B400789480E00895823079F4613029F071
S1130600623059F40E94B30208C00E94A60280EC32
S113061092E09093B6008093B50080E008951F9215
S11306200F920FB60F9211242F933F934F935F9322
S11306306F937F938F939F93AF93BF93EF93FF93A6
S1130640E091B500F091B6000995FF91EF91BF914B
S1130650AF919F918F917F916F915F914F913F9156
S11306602F910F900FBE0F901F901895CF93DF938B
S113067000D000D000D0CDB7DEB782E0898380E11E
S11306808A838FEF8B83CE0101960E949D0381E0C4
S11306908C8384E08D831E82CE0104960E949D0388
S11306A080E026960FB6F894DEBF0FBECDBFDF9173
S11306B0CF9108954FEF60E182E00E94EA0385E361
S11306C08A95F1F7000040E060E182E00E94EA03CD
S11306D080E00895CF93DF9300D0CDB7DEB71A82C0
S11306E01982CE0101960E94360689819A8144E4DA
S11306F0489F9001499F300D1124369527953695D2
S1130700279536952795A5ECB0E20E946B09929542
S113071082958F7089279F708927BC0180E090E0C3
S11307200E942C0680E00F900F90DF91CF910895E6
S11307300E94F40080E090E00895FC01892B09F404
S113074045C08281811122C09081913069F028F0E6
S1130750923081F09330A1F008952AB3818180957D
S113076082238ABB892F089527B391819095922380
S113077097BB089524B391819095922394BB0895D7
S113078021B391819095922391BB0895808181300A
S113079059F028F0823071F0833091F019C02AB3F7
S11307A09181922B9ABB089597B38181892B87BB42
S11307B080E0089594B38181892B84BB80E00895FF
S11307C091B38181892B81BB80E0089581E00895F4
S11307D080E0089541111CC0813059F028F0823026
S11307E069F0833081F02BC08BB3609568236BBBB9
S11307F026C088B36095682368BB21C085B3609523
S1130800682365BB1CC082B36095682362BB17C0B4
S1130810813051F028F0823059F0833069F00FC0F4
S11308208BB3682B6BBB0BC088B3682B68BB07C04A
S113083085B3682B65BB03C082B3682B62BB80E0C1
S11308400895FC01892B99F090819150923088F49D
S113085081818093BA008EB59FB580619FBD8EBDA6
S11308608EB59FB5906A9FBD8EBD80E0089581E0EE
S1130870089580E00895CF92DF92EF92FF92CF9394
S1130880DF93C82FD62F220F331F441F551F60E05C
S113089074E284EF90E00E94490969017A01CA0177
S11308A0B90124E630E040E050E00E944909AD2F50
S11308B0B0E00E947A09C13019F0C23021F005C0BD
S11308C07BBD6ABD02C079BD68BDD7BCC6BC909172
S11308D0BA008EB5892B8EBD80E0DF91CF91FF9059
S11308E0EF90DF90CF9008951F920F920FB60F9262
S11308F011242F933F934F935F936F937F938F9321
S11309009F93AF93BF93EF93FF93E091BB00F0915C
S1130910BC000995FF91EF91BF91AF919F918F9189
S11309207F916F915F914F913F912F910F900FBEE7
S11309300F901F90189541155105F1F0813061F029
S113094018F0823089F01AC06130D1F45093C2009B
S11309504093C10080E008956130A1F45093C00039
S11309604093BF0080E00895613071F45093BE005D
S11309704093BD0080E0089581E0089580E00895EB
S113098080E0089580E0089580E00895FC01892BBB
S113099071F1808191818130910561F018F00297A5
S11309A0C1F01EC093B78281892B83BF8681809357
S11309B0C60016C02EB53FB582819381822B932B3E
S11309C09FBD8EBD868197819093C5008093C4009E
S11309D007C095B58281892B85BD86818093C3002C
S11309E0789499B78085892B89BF80E0089581E048
S11309F00895813059F018F0823099F018C062BF20
S1130A009091C60083B7892B83BF11C077277DBD22
S1130A106CBD8091C4009091C5009EB5892B8EBD9C
S1130A2006C064BD9091C30085B5892B85BD80E067
S1130A300895813039F018F0823039F008C083B756
S1130A4013BE05C08EB51EBC02C085B515BC80E0C2
S1130A500895813031F018F0823031F006C062BF61
S1130A6004C07DBD6CBD01C064BD80E00895611506
S1130A707105D9F0813059F018F0823079F017C03F
S1130A8082B790E0FB019183808380E008958CB568
S1130A909DB5FB019183808380E0089584B590E047
S1130AA0FB019183808380E0089581E0089580E0D4
S1130AB008951F920F920FB60F9211242F933F9314
S1130AC04F935F936F937F938F939F93AF93BF9352
S1130AD0EF93FF93E091C100F091C2000995FF915B
S1130AE0EF91BF91AF919F918F917F916F915F91A2
S1130AF04F913F912F910F900FBE0F901F9018951B
S1130B001F920F920FB60F9211242F933F934F937E
S1130B105F936F937F938F939F93AF93BF93EF9361
S1130B20FF93E091BF00F091C0000995FF91EF9110
S1130B30BF91AF919F918F917F916F915F914F91F1
S1130B403F912F910F900FBE0F901F9018951F92F9
S1130B500F920FB60F9211242F933F934F935F93ED
S1130B606F937F938F939F93AF93BF93EF93FF9371
S1130B70E091BD00F091BE000995FF91EF91BF9106
S1130B80AF919F918F917F916F915F914F913F9121
S1130B902F910F900FBE0F901F9018951F920F92D8
S1130BA00FB60F9211240F900FBE0F901F9018953F
S1130BB01F920F920FB60F9211242F933F934F93CE
S1130BC05F936F937F938F939F93AF93BF93EF93B1
S1130BD0FF93E091C700F091C8000995FF91EF9150
S1130BE0BF91AF919F918F917F916F915F914F9141
S1130BF03F912F910F900FBE0F901F9018951F9249
S1130C000F920FB60F9211242F933F934F935F933C
S1130C106F937F938F939F93AF93BF93EF93FF93C0
S1130C20E091C900F091CA000995FF91EF91BF913D
S1130C30AF919F918F917F916F915F914F913F9170
S1130C402F910F900FBE0F901F9018959093CC008A
S1130C508093CB0081E008956093CD007093CE0023
S1130C608093CF009093D00085E00895009749F0D9
S1130C702091CB003091CC00FC013183208383E0B0
S1130C80089584E00895009779F04091CD00509143
S1130C90CE006091CF007091D000FC01408351835D
S1130CA06283738387E0089588E00895089581E05E
S1130CB08093D2006091D3007091D40082E00E94AE
S1130CC02905089581E08093D2006091D30070914A
S1130CD0D4000E942905089581E08093D200609198
S1130CE0D3007091D40080E00E9429050895CF9329
S1130CF0DF93009709F48AC0EC019881913081F167
S1130D0020F0923009F456C083C01092D10089E7D4
S1130D1090E00E94C60480919D0090919E000597EA
S1130D20B9F469817A8180E090E00E944E0820E065
S1130D3030E04AE751E40E94B4080E941F0820E012
S1130D4031E0C901861B970B9093D4008093D300A4
S1130D504CE656E061E080E00E949B0480E059C0CC
S1130D6081E08093D1008FE690E00E94C6048091D8
S1130D709300909194000597A9F469817A8180E0A9
S1130D8090E00E944E0820E030E04AE751E40E94DF
S1130D90B4080E941F087195619571097093D4007D
S1130DA06093D30042E656E061E081E00E949B0438
S1130DB080E02FC082E08093D10085E690E00E941D
S1130DC0C6048091890090918A000797B9F46981DB
S1130DD07A8180E090E00E944E0820E030E04AE70B
S1130DE051E40E94B4080E941F0820E031E0C901C8
S1130DF0861B970B9093D4008093D30047E556E06D
S1130E0061E082E00E949B0480E003C081E001C0B5
S1130E1080E0DF91CF910895AF92BF92CF92DF929D
S1130E20EF92FF920F931F93CF93DF938091AB00C8
S1130E309091AC0099230CF441C08091D200813090
S1130E40E9F51092D200C5EDD0E000E010E00F2EDD
S1130E50F6E5AF2EF6E0BF2EF02DCC24CA94DC2CA0
S1130E608D819E8101969E838D832881398182178D
S1130E709307D1F41E821D82EF81F88509958C8138
S1130E80813091F48F8198858655964069F08091E0
S1130E90AB009091AC00892B29F4D092AC00C092A5
S1130EA0AB0002C0B886AF820F5F1F4F29968091B6
S1130EB0AB009091AC008017910794F684E0DF9129
S1130EC0CF911F910F91FF90EF90DF90CF90BF9043
S1130ED0AF9008956115710561F1E091AB00F09157
S1130EE0AC003A9744F5E0E0F0E0918380834483DA
S1130EF01682158233832283708767838091AB00C7
S1130F009091AC0001969093AC008093AB00DC010F
S1130F10AA0FBB1FAA0FBB1FAA0FBB1FA80FB91F85
S1130F20AB52BF4F89E001900D928A95E1F780E0C2
S1130F30089585E0089583E008950F931F93CF9358
S1130F40DF93CDB7DEB729970FB6F894DEBF0FBE97
S1130F50CDBF8091AB009091AC00009709F444C0E0
S1130F608C0101501109BC01660F771F660F771FB2
S1130F70660F771F680F791F6B527F4F2EC0FC01DD
S1130F80228133814385548542175307D8F428BB03
S1130F90238525BB29E0DE01119601900D922A9547
S1130FA0E1F729E0FC013996DC0101900D922A95C4
S1130FB0E1F729E0FE013196DC01199601900D92CA
S1130FC02A95E1F7099668177907C9F601151105FD
S1130FD059F001501109695071090F3FFFEF1F07C4
S1130FE0C1F385ED90E0CBCF8091D100813061F0E9
S1130FF018F0823089F017C06091D3007091D4004A
S113100080E00E94F9040FC06091D3007091D40075
S113101081E00E94F90407C06091D3007091D4006C
S113102082E00E94F90486E029960FB6F894DEBFA8
S11310300FBECDBFDF91CF911F910F9108950E94F4
S1131040930888F09F5798F0B92F9927B751B0F0BB
S1131050E1F0660F771F881F991F1AF0BA95C9F738
S113106014C0B13091F00E94AD08B1E008950C9421
S1131070AD08672F782F8827B85F39F0B93FCCF3D4
S1131080869577956795B395D9F73EF490958095B5
S1131090709561957F4F8F4F9F4F0895E89409C0D5
S11310A097FB3EF490958095709561957F4F8F4F97
S11310B09F4F9923A9F0F92F96E9BB279395F695AD
S11310C0879577956795B795F111F8CFFAF4BB0F2B
S11310D011F460FF1BC06F5F7F4F8F4F9F4F16C08F
S11310E0882311F096E911C0772321F09EE8872F19
S11310F0762F05C0662371F096E8862F70E060E0D5
S11311002AF09A95660F771F881FDAF7880F96954D
S1131110879597F9089557FD9058440F551F59F036
S11311205F3F71F04795880F97FB991F61F09F3FD0
S113113079F087950895121613061406551FF2CFF9
S11311404695F1DF08C0161617061806991FF1CF49
S113115086957105610508940895E894BB27662770
S11311607727CB0197F908950E94C7080C94380992
S11311700E942A0938F00E94310920F0952311F0C9
S11311800C9421090C94270911240C94AE080E9494
S11311908B0870F3959FC1F3950F50E0551F629F24
S11311A0F001729FBB27F00DB11D639FAA27F00DBC
S11311B0B11DAA1F649F6627B00DA11D661F829FE3
S11311C02227B00DA11D621F739FB00DA11D621FC8
S11311D0839FA00D611D221F749F3327A00D611DE5
S11311E0231F849F600D211D822F762F6A2F1124C7
S11311F09F5750409AF0F1F088234AF0EE0FFF1FFA
S1131200BB1F661F771F881F91505040A9F79E3F50
S1131210510580F00C9421090C94AE085F3FE4F36F
S1131220983ED4F3869577956795B795F795E795A6
S11312309F5FC1F7FE2B880F911D9695879597F9AF
S1131240089597F99F6780E870E060E008959FEF44
S113125080EC089500240A94161617061806090649
S1131260089500240A941216130614060506089518
S1131270092E0394000C11F4882352F0BB0F40F4A0
S1131280BF2B11F460FF04C06F5F7F4F8F4F9F4FE0
S11312900895A1E21A2EAA1BBB1BFD010DC0AA1FB3
S11312A0BB1FEE1FFF1FA217B307E407F50720F0CB
S11312B0A21BB30BE40BF50B661F771F881F991F46
S11312C01A9469F760957095809590959B01AC018F
S11312D0BD01CF010895A29FB001B39FC001A39F98
S11312E0700D811D1124911DB29F700D811D11245B
S11312F0911D08950E946B09A59F900DB49F900DB8
S1111300A49F800D911D11240895F894FFCF31
S113130E0202020201020000002000070040000158
S113131E000000002005000400000000002000056D
S113132E0001000200000020000700400001000040
S113133E000020050004000000000020000500014C
S113134E0002000000200007004000FFFF0203001F
S9030000FC
